{
  "_format": "hh-sol-artifact-1",
  "contractName": "GuiziaNFT",
  "sourceName": "contracts/GuiziaNFT.sol",
  "abi": [
    {
      "inputs": [
        {
          "internalType": "address",
          "name": "_tokenAddress",
          "type": "address"
        }
      ],
      "stateMutability": "nonpayable",
      "type": "constructor"
    },
    {
      "inputs": [
        {
          "internalType": "address",
          "name": "sender",
          "type": "address"
        },
        {
          "internalType": "uint256",
          "name": "tokenId",
          "type": "uint256"
        },
        {
          "internalType": "address",
          "name": "owner",
          "type": "address"
        }
      ],
      "name": "ERC721IncorrectOwner",
      "type": "error"
    },
    {
      "inputs": [
        {
          "internalType": "address",
          "name": "operator",
          "type": "address"
        },
        {
          "internalType": "uint256",
          "name": "tokenId",
          "type": "uint256"
        }
      ],
      "name": "ERC721InsufficientApproval",
      "type": "error"
    },
    {
      "inputs": [
        {
          "internalType": "address",
          "name": "approver",
          "type": "address"
        }
      ],
      "name": "ERC721InvalidApprover",
      "type": "error"
    },
    {
      "inputs": [
        {
          "internalType": "address",
          "name": "operator",
          "type": "address"
        }
      ],
      "name": "ERC721InvalidOperator",
      "type": "error"
    },
    {
      "inputs": [
        {
          "internalType": "address",
          "name": "owner",
          "type": "address"
        }
      ],
      "name": "ERC721InvalidOwner",
      "type": "error"
    },
    {
      "inputs": [
        {
          "internalType": "address",
          "name": "receiver",
          "type": "address"
        }
      ],
      "name": "ERC721InvalidReceiver",
      "type": "error"
    },
    {
      "inputs": [
        {
          "internalType": "address",
          "name": "sender",
          "type": "address"
        }
      ],
      "name": "ERC721InvalidSender",
      "type": "error"
    },
    {
      "inputs": [
        {
          "internalType": "uint256",
          "name": "tokenId",
          "type": "uint256"
        }
      ],
      "name": "ERC721NonexistentToken",
      "type": "error"
    },
    {
      "anonymous": false,
      "inputs": [
        {
          "indexed": true,
          "internalType": "address",
          "name": "owner",
          "type": "address"
        },
        {
          "indexed": true,
          "internalType": "address",
          "name": "approved",
          "type": "address"
        },
        {
          "indexed": true,
          "internalType": "uint256",
          "name": "tokenId",
          "type": "uint256"
        }
      ],
      "name": "Approval",
      "type": "event"
    },
    {
      "anonymous": false,
      "inputs": [
        {
          "indexed": true,
          "internalType": "address",
          "name": "owner",
          "type": "address"
        },
        {
          "indexed": true,
          "internalType": "address",
          "name": "operator",
          "type": "address"
        },
        {
          "indexed": false,
          "internalType": "bool",
          "name": "approved",
          "type": "bool"
        }
      ],
      "name": "ApprovalForAll",
      "type": "event"
    },
    {
      "anonymous": false,
      "inputs": [
        {
          "indexed": false,
          "internalType": "uint256",
          "name": "_fromTokenId",
          "type": "uint256"
        },
        {
          "indexed": false,
          "internalType": "uint256",
          "name": "_toTokenId",
          "type": "uint256"
        }
      ],
      "name": "BatchMetadataUpdate",
      "type": "event"
    },
    {
      "anonymous": false,
      "inputs": [
        {
          "indexed": false,
          "internalType": "uint256",
          "name": "_tokenId",
          "type": "uint256"
        }
      ],
      "name": "MetadataUpdate",
      "type": "event"
    },
    {
      "anonymous": false,
      "inputs": [
        {
          "indexed": true,
          "internalType": "address",
          "name": "from",
          "type": "address"
        },
        {
          "indexed": true,
          "internalType": "address",
          "name": "to",
          "type": "address"
        },
        {
          "indexed": true,
          "internalType": "uint256",
          "name": "tokenId",
          "type": "uint256"
        }
      ],
      "name": "Transfer",
      "type": "event"
    },
    {
      "inputs": [
        {
          "internalType": "address",
          "name": "to",
          "type": "address"
        },
        {
          "internalType": "uint256",
          "name": "tokenId",
          "type": "uint256"
        }
      ],
      "name": "approve",
      "outputs": [],
      "stateMutability": "nonpayable",
      "type": "function"
    },
    {
      "inputs": [
        {
          "internalType": "address",
          "name": "owner",
          "type": "address"
        }
      ],
      "name": "balanceOf",
      "outputs": [
        {
          "internalType": "uint256",
          "name": "",
          "type": "uint256"
        }
      ],
      "stateMutability": "view",
      "type": "function"
    },
    {
      "inputs": [],
      "name": "buyCredit",
      "outputs": [],
      "stateMutability": "nonpayable",
      "type": "function"
    },
    {
      "inputs": [],
      "name": "creditCost",
      "outputs": [
        {
          "internalType": "uint256",
          "name": "",
          "type": "uint256"
        }
      ],
      "stateMutability": "view",
      "type": "function"
    },
    {
      "inputs": [
        {
          "internalType": "address",
          "name": "",
          "type": "address"
        }
      ],
      "name": "credits",
      "outputs": [
        {
          "internalType": "uint256",
          "name": "",
          "type": "uint256"
        }
      ],
      "stateMutability": "view",
      "type": "function"
    },
    {
      "inputs": [
        {
          "internalType": "uint256",
          "name": "tokenId",
          "type": "uint256"
        }
      ],
      "name": "getApproved",
      "outputs": [
        {
          "internalType": "address",
          "name": "",
          "type": "address"
        }
      ],
      "stateMutability": "view",
      "type": "function"
    },
    {
      "inputs": [
        {
          "internalType": "address",
          "name": "userAddress",
          "type": "address"
        }
      ],
      "name": "getCredits",
      "outputs": [
        {
          "internalType": "uint256",
          "name": "",
          "type": "uint256"
        }
      ],
      "stateMutability": "view",
      "type": "function"
    },
    {
      "inputs": [
        {
          "internalType": "address",
          "name": "owner",
          "type": "address"
        },
        {
          "internalType": "address",
          "name": "operator",
          "type": "address"
        }
      ],
      "name": "isApprovedForAll",
      "outputs": [
        {
          "internalType": "bool",
          "name": "",
          "type": "bool"
        }
      ],
      "stateMutability": "view",
      "type": "function"
    },
    {
      "inputs": [
        {
          "internalType": "address",
          "name": "userAddress",
          "type": "address"
        },
        {
          "internalType": "string",
          "name": "tokenURI",
          "type": "string"
        }
      ],
      "name": "mint",
      "outputs": [],
      "stateMutability": "nonpayable",
      "type": "function"
    },
    {
      "inputs": [],
      "name": "mintingOpen",
      "outputs": [
        {
          "internalType": "bool",
          "name": "",
          "type": "bool"
        }
      ],
      "stateMutability": "view",
      "type": "function"
    },
    {
      "inputs": [],
      "name": "name",
      "outputs": [
        {
          "internalType": "string",
          "name": "",
          "type": "string"
        }
      ],
      "stateMutability": "view",
      "type": "function"
    },
    {
      "inputs": [],
      "name": "owner",
      "outputs": [
        {
          "internalType": "address",
          "name": "",
          "type": "address"
        }
      ],
      "stateMutability": "view",
      "type": "function"
    },
    {
      "inputs": [
        {
          "internalType": "uint256",
          "name": "tokenId",
          "type": "uint256"
        }
      ],
      "name": "ownerOf",
      "outputs": [
        {
          "internalType": "address",
          "name": "",
          "type": "address"
        }
      ],
      "stateMutability": "view",
      "type": "function"
    },
    {
      "inputs": [
        {
          "internalType": "address",
          "name": "from",
          "type": "address"
        },
        {
          "internalType": "address",
          "name": "to",
          "type": "address"
        },
        {
          "internalType": "uint256",
          "name": "tokenId",
          "type": "uint256"
        }
      ],
      "name": "safeTransferFrom",
      "outputs": [],
      "stateMutability": "nonpayable",
      "type": "function"
    },
    {
      "inputs": [
        {
          "internalType": "address",
          "name": "from",
          "type": "address"
        },
        {
          "internalType": "address",
          "name": "to",
          "type": "address"
        },
        {
          "internalType": "uint256",
          "name": "tokenId",
          "type": "uint256"
        },
        {
          "internalType": "bytes",
          "name": "data",
          "type": "bytes"
        }
      ],
      "name": "safeTransferFrom",
      "outputs": [],
      "stateMutability": "nonpayable",
      "type": "function"
    },
    {
      "inputs": [
        {
          "internalType": "address",
          "name": "operator",
          "type": "address"
        },
        {
          "internalType": "bool",
          "name": "approved",
          "type": "bool"
        }
      ],
      "name": "setApprovalForAll",
      "outputs": [],
      "stateMutability": "nonpayable",
      "type": "function"
    },
    {
      "inputs": [
        {
          "internalType": "uint256",
          "name": "_newCost",
          "type": "uint256"
        }
      ],
      "name": "setCreditCost",
      "outputs": [],
      "stateMutability": "nonpayable",
      "type": "function"
    },
    {
      "inputs": [
        {
          "internalType": "bool",
          "name": "_mintingOpen",
          "type": "bool"
        }
      ],
      "name": "setMintingOpen",
      "outputs": [],
      "stateMutability": "nonpayable",
      "type": "function"
    },
    {
      "inputs": [
        {
          "internalType": "address",
          "name": "_newTokenAddress",
          "type": "address"
        }
      ],
      "name": "setTokenAddress",
      "outputs": [],
      "stateMutability": "nonpayable",
      "type": "function"
    },
    {
      "inputs": [
        {
          "internalType": "bytes4",
          "name": "interfaceId",
          "type": "bytes4"
        }
      ],
      "name": "supportsInterface",
      "outputs": [
        {
          "internalType": "bool",
          "name": "",
          "type": "bool"
        }
      ],
      "stateMutability": "view",
      "type": "function"
    },
    {
      "inputs": [],
      "name": "symbol",
      "outputs": [
        {
          "internalType": "string",
          "name": "",
          "type": "string"
        }
      ],
      "stateMutability": "view",
      "type": "function"
    },
    {
      "inputs": [],
      "name": "token",
      "outputs": [
        {
          "internalType": "contract IERC20",
          "name": "",
          "type": "address"
        }
      ],
      "stateMutability": "view",
      "type": "function"
    },
    {
      "inputs": [
        {
          "internalType": "uint256",
          "name": "tokenId",
          "type": "uint256"
        }
      ],
      "name": "tokenURI",
      "outputs": [
        {
          "internalType": "string",
          "name": "",
          "type": "string"
        }
      ],
      "stateMutability": "view",
      "type": "function"
    },
    {
      "inputs": [],
      "name": "totalSupply",
      "outputs": [
        {
          "internalType": "uint256",
          "name": "",
          "type": "uint256"
        }
      ],
      "stateMutability": "view",
      "type": "function"
    },
    {
      "inputs": [
        {
          "internalType": "address",
          "name": "from",
          "type": "address"
        },
        {
          "internalType": "address",
          "name": "to",
          "type": "address"
        },
        {
          "internalType": "uint256",
          "name": "tokenId",
          "type": "uint256"
        }
      ],
      "name": "transferFrom",
      "outputs": [],
      "stateMutability": "nonpayable",
      "type": "function"
    },
    {
      "inputs": [],
      "name": "withdraw",
      "outputs": [],
      "stateMutability": "nonpayable",
      "type": "function"
    }
  ],
  "bytecode": "0x60806040526064600a55600c805460ff191660011790553480156200002357600080fd5b5060405162001cdf38038062001cdf8339810160408190526200004691620000dc565b604051806040016040528060068152602001654775697a696160d01b815250604051806040016040528060068152602001654755495a494160d01b8152508160009081620000959190620001b3565b506001620000a48282620001b3565b505060088054336001600160a01b031991821617909155600980549091166001600160a01b039390931692909217909155506200027f565b600060208284031215620000ef57600080fd5b81516001600160a01b03811681146200010757600080fd5b9392505050565b634e487b7160e01b600052604160045260246000fd5b600181811c908216806200013957607f821691505b6020821081036200015a57634e487b7160e01b600052602260045260246000fd5b50919050565b601f821115620001ae57600081815260208120601f850160051c81016020861015620001895750805b601f850160051c820191505b81811015620001aa5782815560010162000195565b5050505b505050565b81516001600160401b03811115620001cf57620001cf6200010e565b620001e781620001e0845462000124565b8462000160565b602080601f8311600181146200021f5760008415620002065750858301515b600019600386901b1c1916600185901b178555620001aa565b600085815260208120601f198616915b8281101562000250578886015182559484019460019091019084016200022f565b50858210156200026f5787850151600019600388901b60f8161c191681555b5050505050600190811b01905550565b611a50806200028f6000396000f3fe608060405234801561001057600080fd5b506004361061018e5760003560e01c80638e4e6f06116100de578063b88d4fde11610097578063e985e9c511610071578063e985e9c514610354578063ee4dba9014610367578063fc0c546a14610370578063fe5ff4681461038357600080fd5b8063b88d4fde1461031b578063c87b56dd1461032e578063d0def5211461034157600080fd5b80638e4e6f06146102c55780638f4bb497146102cd57806395d89b41146102da5780639ce147d0146102e2578063a22cb465146102f5578063b033caf11461030857600080fd5b806326a4e8d21161014b57806342842e0e1161012557806342842e0e146102795780636352211e1461028c57806370a082311461029f5780638da5cb5b146102b257600080fd5b806326a4e8d2146102355780633b66e9f6146102485780633ccfd60b1461027157600080fd5b806301ffc9a71461019357806306fdde03146101bb578063081812fc146101d0578063095ea7b3146101fb57806318160ddd1461021057806323b872dd14610222575b600080fd5b6101a66101a13660046114c3565b6103a3565b60405190151581526020015b60405180910390f35b6101c36103ce565b6040516101b29190611530565b6101e36101de366004611543565b610460565b6040516001600160a01b0390911681526020016101b2565b61020e610209366004611578565b610489565b005b6007545b6040519081526020016101b2565b61020e6102303660046115a2565b610498565b61020e6102433660046115de565b610528565b6102146102563660046115de565b6001600160a01b03166000908152600b602052604090205490565b61020e61061f565b61020e6102873660046115a2565b610711565b6101e361029a366004611543565b610731565b6102146102ad3660046115de565b61073c565b6008546101e3906001600160a01b031681565b61020e610784565b600c546101a69060ff1681565b6101c3610928565b61020e6102f0366004611543565b610937565b61020e610303366004611607565b610a06565b61020e61031636600461163e565b610a11565b61020e6103293660046116e7565b610a8f565b6101c361033c366004611543565b610aa7565b61020e61034f366004611763565b610bb8565b6101a66103623660046117c5565b610cc4565b610214600a5481565b6009546101e3906001600160a01b031681565b6102146103913660046115de565b600b6020526000908152604090205481565b60006001600160e01b03198216632483248360e11b14806103c857506103c882610cf2565b92915050565b6060600080546103dd906117f8565b80601f0160208091040260200160405190810160405280929190818152602001828054610409906117f8565b80156104565780601f1061042b57610100808354040283529160200191610456565b820191906000526020600020905b81548152906001019060200180831161043957829003601f168201915b5050505050905090565b600061046b82610d42565b506000828152600460205260409020546001600160a01b03166103c8565b610494828233610d7b565b5050565b6001600160a01b0382166104c757604051633250574960e11b8152600060048201526024015b60405180910390fd5b60006104d4838333610d88565b9050836001600160a01b0316816001600160a01b031614610522576040516364283d7b60e01b81526001600160a01b03808616600483015260248201849052821660448201526064016104be565b50505050565b6008546001600160a01b031633146105965760405162461bcd60e51b815260206004820152602b60248201527f4f6e6c7920746865206f776e65722063616e206368616e67652074686520746f60448201526a6b656e206164647265737360a81b60648201526084016104be565b6001600160a01b0381166105fd5760405162461bcd60e51b815260206004820152602860248201527f546f6b656e20616464726573732063616e6e6f7420626520746865207a65726f604482015267206164647265737360c01b60648201526084016104be565b600980546001600160a01b0319166001600160a01b0392909216919091179055565b6008546001600160a01b031633146106795760405162461bcd60e51b815260206004820152601760248201527f4f6e6c79206f776e65722063616e20776974686472617700000000000000000060448201526064016104be565b6008546040516000916001600160a01b03169047908381818185875af1925050503d80600081146106c6576040519150601f19603f3d011682016040523d82523d6000602084013e6106cb565b606091505b505090508061070e5760405162461bcd60e51b815260206004820152600f60248201526e15da5d1a191c985dc819985a5b1959608a1b60448201526064016104be565b50565b61072c83838360405180602001604052806000815250610a8f565b505050565b60006103c882610d42565b60006001600160a01b038216610768576040516322718ad960e21b8152600060048201526024016104be565b506001600160a01b031660009081526003602052604090205490565b600954600a546040516323b872dd60e01b815233600482015230602482015260448101919091526001600160a01b03909116906323b872dd906064016020604051808303816000875af11580156107df573d6000803e3d6000fd5b505050506040513d601f19601f820116820180604052508101906108039190611832565b6108475760405162461bcd60e51b8152602060048201526015602482015274151bdad95b881d1c985b9cd9995c8819985a5b1959605a1b60448201526064016104be565b600954600a5460405163a9059cbb60e01b81526000600482015260248101919091526001600160a01b039091169063a9059cbb906044016020604051808303816000875af115801561089d573d6000803e3d6000fd5b505050506040513d601f19601f820116820180604052508101906108c19190611832565b6109015760405162461bcd60e51b8152602060048201526011602482015270151bdad95b88189d5c9b8819985a5b1959607a1b60448201526064016104be565b336000908152600b60205260408120805460019290610921908490611865565b9091555050565b6060600180546103dd906117f8565b6008546001600160a01b031633146109a35760405162461bcd60e51b815260206004820152602960248201527f4f6e6c7920746865206f776e65722063616e206368616e67652074686520637260448201526819591a5d0818dbdcdd60ba1b60648201526084016104be565b60008111610a015760405162461bcd60e51b815260206004820152602560248201527f43726564697420636f7374206d7573742062652067726561746572207468616e604482015264207a65726f60d81b60648201526084016104be565b600a55565b610494338383610e81565b6008546001600160a01b03163314610a7c5760405162461bcd60e51b815260206004820152602860248201527f4f6e6c7920746865206f776e65722063616e206368616e6765206d696e74696e604482015267672073746174757360c01b60648201526084016104be565b600c805460ff1916911515919091179055565b610a9a848484610498565b6105223385858585610f20565b6060610ab282610d42565b5060008281526006602052604081208054610acc906117f8565b80601f0160208091040260200160405190810160405280929190818152602001828054610af8906117f8565b8015610b455780601f10610b1a57610100808354040283529160200191610b45565b820191906000526020600020905b815481529060010190602001808311610b2857829003601f168201915b505050505090506000610b6360408051602081019091526000815290565b90508051600003610b75575092915050565b815115610ba7578082604051602001610b8f929190611878565b60405160208183030381529060405292505050919050565b610bb08461104b565b949350505050565b600c5460ff16610c0a5760405162461bcd60e51b815260206004820152601d60248201527f4d696e74696e672069732063757272656e746c792064697361626c656400000060448201526064016104be565b6001600160a01b0382166000908152600b6020526040902054610c655760405162461bcd60e51b8152602060048201526013602482015272125b9cdd59999a58da595b9d0818dc99591a5d606a1b60448201526064016104be565b6001600160a01b0382166000908152600b60205260408120805460019290610c8e9084906118a7565b92505081905550600160076000828254610ca89190611865565b9091555050600754610cba83826110c0565b61072c8183611125565b6001600160a01b03918216600090815260056020908152604080832093909416825291909152205460ff1690565b60006001600160e01b031982166380ac58cd60e01b1480610d2357506001600160e01b03198216635b5e139f60e01b145b806103c857506301ffc9a760e01b6001600160e01b03198316146103c8565b6000818152600260205260408120546001600160a01b0316806103c857604051637e27328960e01b8152600481018490526024016104be565b61072c8383836001611175565b6000828152600260205260408120546001600160a01b0390811690831615610db557610db581848661127b565b6001600160a01b03811615610df357610dd2600085600080611175565b6001600160a01b038116600090815260036020526040902080546000190190555b6001600160a01b03851615610e22576001600160a01b0385166000908152600360205260409020805460010190555b60008481526002602052604080822080546001600160a01b0319166001600160a01b0389811691821790925591518793918516917fddf252ad1be2c89b69c2b068fc378daa952ba7f163c4a11628f55a4df523b3ef91a4949350505050565b6001600160a01b038216610eb357604051630b61174360e31b81526001600160a01b03831660048201526024016104be565b6001600160a01b03838116600081815260056020908152604080832094871680845294825291829020805460ff191686151590811790915591519182527f17307eab39ab6107e8899845ad3d59bd9653f200f220920489ca2b5937696c31910160405180910390a3505050565b6001600160a01b0383163b1561104457604051630a85bd0160e11b81526001600160a01b0384169063150b7a0290610f629088908890879087906004016118ba565b6020604051808303816000875af1925050508015610f9d575060408051601f3d908101601f19168201909252610f9a918101906118f7565b60015b611006573d808015610fcb576040519150601f19603f3d011682016040523d82523d6000602084013e610fd0565b606091505b508051600003610ffe57604051633250574960e11b81526001600160a01b03851660048201526024016104be565b805181602001fd5b6001600160e01b03198116630a85bd0160e11b1461104257604051633250574960e11b81526001600160a01b03851660048201526024016104be565b505b5050505050565b606061105682610d42565b50600061106e60408051602081019091526000815290565b9050600081511161108e57604051806020016040528060008152506110b9565b80611098846112df565b6040516020016110a9929190611878565b6040516020818303038152906040525b9392505050565b6001600160a01b0382166110ea57604051633250574960e11b8152600060048201526024016104be565b60006110f883836000610d88565b90506001600160a01b0381161561072c576040516339e3563760e11b8152600060048201526024016104be565b600082815260066020526040902061113d828261195a565b506040518281527ff8e1a15aba9398e019f0b49df1a4fde98ee17ae345cb5f6b5e2c27f5033e8ce79060200160405180910390a15050565b808061118957506001600160a01b03821615155b1561124b57600061119984610d42565b90506001600160a01b038316158015906111c55750826001600160a01b0316816001600160a01b031614155b80156111d857506111d68184610cc4565b155b156112015760405163a9fbf51f60e01b81526001600160a01b03841660048201526024016104be565b81156112495783856001600160a01b0316826001600160a01b03167f8c5be1e5ebec7d5bd14f71427d1e84f3dd0314c0f7b2291e5b200ac8c7c3b92560405160405180910390a45b505b5050600090815260046020526040902080546001600160a01b0319166001600160a01b0392909216919091179055565b611286838383611372565b61072c576001600160a01b0383166112b457604051637e27328960e01b8152600481018290526024016104be565b60405163177e802f60e01b81526001600160a01b0383166004820152602481018290526044016104be565b606060006112ec836113d5565b600101905060008167ffffffffffffffff81111561130c5761130c61165b565b6040519080825280601f01601f191660200182016040528015611336576020820181803683370190505b5090508181016020015b600019016f181899199a1a9b1b9c1cb0b131b232b360811b600a86061a8153600a850494508461134057509392505050565b60006001600160a01b03831615801590610bb05750826001600160a01b0316846001600160a01b031614806113ac57506113ac8484610cc4565b80610bb05750506000908152600460205260409020546001600160a01b03908116911614919050565b60008072184f03e93ff9f4daa797ed6e38ed64bf6a1f0160401b83106114145772184f03e93ff9f4daa797ed6e38ed64bf6a1f0160401b830492506040015b6d04ee2d6d415b85acef81000000008310611440576d04ee2d6d415b85acef8100000000830492506020015b662386f26fc10000831061145e57662386f26fc10000830492506010015b6305f5e1008310611476576305f5e100830492506008015b612710831061148a57612710830492506004015b6064831061149c576064830492506002015b600a83106103c85760010192915050565b6001600160e01b03198116811461070e57600080fd5b6000602082840312156114d557600080fd5b81356110b9816114ad565b60005b838110156114fb5781810151838201526020016114e3565b50506000910152565b6000815180845261151c8160208601602086016114e0565b601f01601f19169290920160200192915050565b6020815260006110b96020830184611504565b60006020828403121561155557600080fd5b5035919050565b80356001600160a01b038116811461157357600080fd5b919050565b6000806040838503121561158b57600080fd5b6115948361155c565b946020939093013593505050565b6000806000606084860312156115b757600080fd5b6115c08461155c565b92506115ce6020850161155c565b9150604084013590509250925092565b6000602082840312156115f057600080fd5b6110b98261155c565b801515811461070e57600080fd5b6000806040838503121561161a57600080fd5b6116238361155c565b91506020830135611633816115f9565b809150509250929050565b60006020828403121561165057600080fd5b81356110b9816115f9565b634e487b7160e01b600052604160045260246000fd5b600067ffffffffffffffff8084111561168c5761168c61165b565b604051601f8501601f19908116603f011681019082821181831017156116b4576116b461165b565b816040528093508581528686860111156116cd57600080fd5b858560208301376000602087830101525050509392505050565b600080600080608085870312156116fd57600080fd5b6117068561155c565b93506117146020860161155c565b925060408501359150606085013567ffffffffffffffff81111561173757600080fd5b8501601f8101871361174857600080fd5b61175787823560208401611671565b91505092959194509250565b6000806040838503121561177657600080fd5b61177f8361155c565b9150602083013567ffffffffffffffff81111561179b57600080fd5b8301601f810185136117ac57600080fd5b6117bb85823560208401611671565b9150509250929050565b600080604083850312156117d857600080fd5b6117e18361155c565b91506117ef6020840161155c565b90509250929050565b600181811c9082168061180c57607f821691505b60208210810361182c57634e487b7160e01b600052602260045260246000fd5b50919050565b60006020828403121561184457600080fd5b81516110b9816115f9565b634e487b7160e01b600052601160045260246000fd5b808201808211156103c8576103c861184f565b6000835161188a8184602088016114e0565b83519083019061189e8183602088016114e0565b01949350505050565b818103818111156103c8576103c861184f565b6001600160a01b03858116825284166020820152604081018390526080606082018190526000906118ed90830184611504565b9695505050505050565b60006020828403121561190957600080fd5b81516110b9816114ad565b601f82111561072c57600081815260208120601f850160051c8101602086101561193b5750805b601f850160051c820191505b8181101561104257828155600101611947565b815167ffffffffffffffff8111156119745761197461165b565b6119888161198284546117f8565b84611914565b602080601f8311600181146119bd57600084156119a55750858301515b600019600386901b1c1916600185901b178555611042565b600085815260208120601f198616915b828110156119ec578886015182559484019460019091019084016119cd565b5085821015611a0a5787850151600019600388901b60f8161c191681555b5050505050600190811b0190555056fea2646970667358221220ba2b485e4ba1a9b8caef5ac34883f6c9e1e21a6c474b6510f303f6690ac81fab64736f6c63430008140033",
  "linkReferences": {},
  "deployedLinkReferences": {}
}