{
  "_format": "hh-sol-artifact-1",
  "contractName": "GuiziaNFT",
  "sourceName": "contracts/GuiziaNFT.sol",
  "abi": [
    {
      "inputs": [
        {
          "internalType": "address",
          "name": "_tokenAddress",
          "type": "address"
        }
      ],
      "stateMutability": "nonpayable",
      "type": "constructor"
    },
    {
      "inputs": [
        {
          "internalType": "address",
          "name": "sender",
          "type": "address"
        },
        {
          "internalType": "uint256",
          "name": "tokenId",
          "type": "uint256"
        },
        {
          "internalType": "address",
          "name": "owner",
          "type": "address"
        }
      ],
      "name": "ERC721IncorrectOwner",
      "type": "error"
    },
    {
      "inputs": [
        {
          "internalType": "address",
          "name": "operator",
          "type": "address"
        },
        {
          "internalType": "uint256",
          "name": "tokenId",
          "type": "uint256"
        }
      ],
      "name": "ERC721InsufficientApproval",
      "type": "error"
    },
    {
      "inputs": [
        {
          "internalType": "address",
          "name": "approver",
          "type": "address"
        }
      ],
      "name": "ERC721InvalidApprover",
      "type": "error"
    },
    {
      "inputs": [
        {
          "internalType": "address",
          "name": "operator",
          "type": "address"
        }
      ],
      "name": "ERC721InvalidOperator",
      "type": "error"
    },
    {
      "inputs": [
        {
          "internalType": "address",
          "name": "owner",
          "type": "address"
        }
      ],
      "name": "ERC721InvalidOwner",
      "type": "error"
    },
    {
      "inputs": [
        {
          "internalType": "address",
          "name": "receiver",
          "type": "address"
        }
      ],
      "name": "ERC721InvalidReceiver",
      "type": "error"
    },
    {
      "inputs": [
        {
          "internalType": "address",
          "name": "sender",
          "type": "address"
        }
      ],
      "name": "ERC721InvalidSender",
      "type": "error"
    },
    {
      "inputs": [
        {
          "internalType": "uint256",
          "name": "tokenId",
          "type": "uint256"
        }
      ],
      "name": "ERC721NonexistentToken",
      "type": "error"
    },
    {
      "anonymous": false,
      "inputs": [
        {
          "indexed": true,
          "internalType": "address",
          "name": "owner",
          "type": "address"
        },
        {
          "indexed": true,
          "internalType": "address",
          "name": "approved",
          "type": "address"
        },
        {
          "indexed": true,
          "internalType": "uint256",
          "name": "tokenId",
          "type": "uint256"
        }
      ],
      "name": "Approval",
      "type": "event"
    },
    {
      "anonymous": false,
      "inputs": [
        {
          "indexed": true,
          "internalType": "address",
          "name": "owner",
          "type": "address"
        },
        {
          "indexed": true,
          "internalType": "address",
          "name": "operator",
          "type": "address"
        },
        {
          "indexed": false,
          "internalType": "bool",
          "name": "approved",
          "type": "bool"
        }
      ],
      "name": "ApprovalForAll",
      "type": "event"
    },
    {
      "anonymous": false,
      "inputs": [
        {
          "indexed": false,
          "internalType": "uint256",
          "name": "_fromTokenId",
          "type": "uint256"
        },
        {
          "indexed": false,
          "internalType": "uint256",
          "name": "_toTokenId",
          "type": "uint256"
        }
      ],
      "name": "BatchMetadataUpdate",
      "type": "event"
    },
    {
      "anonymous": false,
      "inputs": [
        {
          "indexed": false,
          "internalType": "uint256",
          "name": "_tokenId",
          "type": "uint256"
        }
      ],
      "name": "MetadataUpdate",
      "type": "event"
    },
    {
      "anonymous": false,
      "inputs": [
        {
          "indexed": true,
          "internalType": "address",
          "name": "from",
          "type": "address"
        },
        {
          "indexed": true,
          "internalType": "address",
          "name": "to",
          "type": "address"
        },
        {
          "indexed": true,
          "internalType": "uint256",
          "name": "tokenId",
          "type": "uint256"
        }
      ],
      "name": "Transfer",
      "type": "event"
    },
    {
      "inputs": [
        {
          "internalType": "address",
          "name": "to",
          "type": "address"
        },
        {
          "internalType": "uint256",
          "name": "tokenId",
          "type": "uint256"
        }
      ],
      "name": "approve",
      "outputs": [],
      "stateMutability": "nonpayable",
      "type": "function"
    },
    {
      "inputs": [
        {
          "internalType": "address",
          "name": "owner",
          "type": "address"
        }
      ],
      "name": "balanceOf",
      "outputs": [
        {
          "internalType": "uint256",
          "name": "",
          "type": "uint256"
        }
      ],
      "stateMutability": "view",
      "type": "function"
    },
    {
      "inputs": [],
      "name": "buyCredit",
      "outputs": [],
      "stateMutability": "nonpayable",
      "type": "function"
    },
    {
      "inputs": [],
      "name": "creditCost",
      "outputs": [
        {
          "internalType": "uint256",
          "name": "",
          "type": "uint256"
        }
      ],
      "stateMutability": "view",
      "type": "function"
    },
    {
      "inputs": [
        {
          "internalType": "address",
          "name": "",
          "type": "address"
        }
      ],
      "name": "credits",
      "outputs": [
        {
          "internalType": "uint256",
          "name": "",
          "type": "uint256"
        }
      ],
      "stateMutability": "view",
      "type": "function"
    },
    {
      "inputs": [
        {
          "internalType": "uint256",
          "name": "tokenId",
          "type": "uint256"
        }
      ],
      "name": "getApproved",
      "outputs": [
        {
          "internalType": "address",
          "name": "",
          "type": "address"
        }
      ],
      "stateMutability": "view",
      "type": "function"
    },
    {
      "inputs": [
        {
          "internalType": "address",
          "name": "userAddress",
          "type": "address"
        }
      ],
      "name": "getCredits",
      "outputs": [
        {
          "internalType": "uint256",
          "name": "",
          "type": "uint256"
        }
      ],
      "stateMutability": "view",
      "type": "function"
    },
    {
      "inputs": [
        {
          "internalType": "address",
          "name": "owner",
          "type": "address"
        },
        {
          "internalType": "address",
          "name": "operator",
          "type": "address"
        }
      ],
      "name": "isApprovedForAll",
      "outputs": [
        {
          "internalType": "bool",
          "name": "",
          "type": "bool"
        }
      ],
      "stateMutability": "view",
      "type": "function"
    },
    {
      "inputs": [
        {
          "internalType": "address",
          "name": "userAddress",
          "type": "address"
        },
        {
          "internalType": "string",
          "name": "tokenURI",
          "type": "string"
        }
      ],
      "name": "mint",
      "outputs": [
        {
          "internalType": "uint256",
          "name": "",
          "type": "uint256"
        }
      ],
      "stateMutability": "nonpayable",
      "type": "function"
    },
    {
      "inputs": [],
      "name": "mintingOpen",
      "outputs": [
        {
          "internalType": "bool",
          "name": "",
          "type": "bool"
        }
      ],
      "stateMutability": "view",
      "type": "function"
    },
    {
      "inputs": [],
      "name": "name",
      "outputs": [
        {
          "internalType": "string",
          "name": "",
          "type": "string"
        }
      ],
      "stateMutability": "view",
      "type": "function"
    },
    {
      "inputs": [],
      "name": "owner",
      "outputs": [
        {
          "internalType": "address",
          "name": "",
          "type": "address"
        }
      ],
      "stateMutability": "view",
      "type": "function"
    },
    {
      "inputs": [
        {
          "internalType": "uint256",
          "name": "tokenId",
          "type": "uint256"
        }
      ],
      "name": "ownerOf",
      "outputs": [
        {
          "internalType": "address",
          "name": "",
          "type": "address"
        }
      ],
      "stateMutability": "view",
      "type": "function"
    },
    {
      "inputs": [
        {
          "internalType": "address",
          "name": "from",
          "type": "address"
        },
        {
          "internalType": "address",
          "name": "to",
          "type": "address"
        },
        {
          "internalType": "uint256",
          "name": "tokenId",
          "type": "uint256"
        }
      ],
      "name": "safeTransferFrom",
      "outputs": [],
      "stateMutability": "nonpayable",
      "type": "function"
    },
    {
      "inputs": [
        {
          "internalType": "address",
          "name": "from",
          "type": "address"
        },
        {
          "internalType": "address",
          "name": "to",
          "type": "address"
        },
        {
          "internalType": "uint256",
          "name": "tokenId",
          "type": "uint256"
        },
        {
          "internalType": "bytes",
          "name": "data",
          "type": "bytes"
        }
      ],
      "name": "safeTransferFrom",
      "outputs": [],
      "stateMutability": "nonpayable",
      "type": "function"
    },
    {
      "inputs": [
        {
          "internalType": "address",
          "name": "operator",
          "type": "address"
        },
        {
          "internalType": "bool",
          "name": "approved",
          "type": "bool"
        }
      ],
      "name": "setApprovalForAll",
      "outputs": [],
      "stateMutability": "nonpayable",
      "type": "function"
    },
    {
      "inputs": [
        {
          "internalType": "uint256",
          "name": "_newCost",
          "type": "uint256"
        }
      ],
      "name": "setCreditCost",
      "outputs": [],
      "stateMutability": "nonpayable",
      "type": "function"
    },
    {
      "inputs": [
        {
          "internalType": "bool",
          "name": "_mintingOpen",
          "type": "bool"
        }
      ],
      "name": "setMintingOpen",
      "outputs": [],
      "stateMutability": "nonpayable",
      "type": "function"
    },
    {
      "inputs": [
        {
          "internalType": "address",
          "name": "_newTokenAddress",
          "type": "address"
        }
      ],
      "name": "setTokenAddress",
      "outputs": [],
      "stateMutability": "nonpayable",
      "type": "function"
    },
    {
      "inputs": [
        {
          "internalType": "bytes4",
          "name": "interfaceId",
          "type": "bytes4"
        }
      ],
      "name": "supportsInterface",
      "outputs": [
        {
          "internalType": "bool",
          "name": "",
          "type": "bool"
        }
      ],
      "stateMutability": "view",
      "type": "function"
    },
    {
      "inputs": [],
      "name": "symbol",
      "outputs": [
        {
          "internalType": "string",
          "name": "",
          "type": "string"
        }
      ],
      "stateMutability": "view",
      "type": "function"
    },
    {
      "inputs": [],
      "name": "token",
      "outputs": [
        {
          "internalType": "contract IERC20Burnable",
          "name": "",
          "type": "address"
        }
      ],
      "stateMutability": "view",
      "type": "function"
    },
    {
      "inputs": [
        {
          "internalType": "address",
          "name": "ownerAddress",
          "type": "address"
        }
      ],
      "name": "tokenIdsOf",
      "outputs": [
        {
          "internalType": "uint256[]",
          "name": "",
          "type": "uint256[]"
        }
      ],
      "stateMutability": "view",
      "type": "function"
    },
    {
      "inputs": [
        {
          "internalType": "uint256",
          "name": "tokenId",
          "type": "uint256"
        }
      ],
      "name": "tokenURI",
      "outputs": [
        {
          "internalType": "string",
          "name": "",
          "type": "string"
        }
      ],
      "stateMutability": "view",
      "type": "function"
    },
    {
      "inputs": [],
      "name": "totalSupply",
      "outputs": [
        {
          "internalType": "uint256",
          "name": "",
          "type": "uint256"
        }
      ],
      "stateMutability": "view",
      "type": "function"
    },
    {
      "inputs": [
        {
          "internalType": "address",
          "name": "from",
          "type": "address"
        },
        {
          "internalType": "address",
          "name": "to",
          "type": "address"
        },
        {
          "internalType": "uint256",
          "name": "tokenId",
          "type": "uint256"
        }
      ],
      "name": "transferFrom",
      "outputs": [],
      "stateMutability": "nonpayable",
      "type": "function"
    },
    {
      "inputs": [],
      "name": "withdraw",
      "outputs": [],
      "stateMutability": "nonpayable",
      "type": "function"
    }
  ],
  "bytecode": "0x60806040526064600a55600c805460ff191660011790553480156200002357600080fd5b5060405162001d3c38038062001d3c8339810160408190526200004691620000dc565b604051806040016040528060068152602001654775697a696160d01b815250604051806040016040528060068152602001654755495a494160d01b8152508160009081620000959190620001b3565b506001620000a48282620001b3565b505060088054336001600160a01b031991821617909155600980549091166001600160a01b039390931692909217909155506200027f565b600060208284031215620000ef57600080fd5b81516001600160a01b03811681146200010757600080fd5b9392505050565b634e487b7160e01b600052604160045260246000fd5b600181811c908216806200013957607f821691505b6020821081036200015a57634e487b7160e01b600052602260045260246000fd5b50919050565b601f821115620001ae57600081815260208120601f850160051c81016020861015620001895750805b601f850160051c820191505b81811015620001aa5782815560010162000195565b5050505b505050565b81516001600160401b03811115620001cf57620001cf6200010e565b620001e781620001e0845462000124565b8462000160565b602080601f8311600181146200021f5760008415620002065750858301515b600019600386901b1c1916600185901b178555620001aa565b600085815260208120601f198616915b8281101562000250578886015182559484019460019091019084016200022f565b50858210156200026f5787850151600019600388901b60f8161c191681555b5050505050600190811b01905550565b611aad806200028f6000396000f3fe608060405234801561001057600080fd5b50600436106101a95760003560e01c80638e4e6f06116100f9578063b88d4fde11610097578063e985e9c511610071578063e985e9c51461038f578063ee4dba90146103a2578063fc0c546a146103ab578063fe5ff468146103be57600080fd5b8063b88d4fde14610356578063c87b56dd14610369578063d0def5211461037c57600080fd5b80639ce147d0116100d35780639ce147d0146102fd578063a22cb46514610310578063a3b261f214610323578063b033caf11461034357600080fd5b80638e4e6f06146102e05780638f4bb497146102e857806395d89b41146102f557600080fd5b806326a4e8d21161016657806342842e0e1161014057806342842e0e146102945780636352211e146102a757806370a08231146102ba5780638da5cb5b146102cd57600080fd5b806326a4e8d2146102505780633b66e9f6146102635780633ccfd60b1461028c57600080fd5b806301ffc9a7146101ae57806306fdde03146101d6578063081812fc146101eb578063095ea7b31461021657806318160ddd1461022b57806323b872dd1461023d575b600080fd5b6101c16101bc3660046114dc565b6103de565b60405190151581526020015b60405180910390f35b6101de610409565b6040516101cd9190611549565b6101fe6101f936600461155c565b61049b565b6040516001600160a01b0390911681526020016101cd565b610229610224366004611591565b6104c4565b005b6007545b6040519081526020016101cd565b61022961024b3660046115bb565b6104d3565b61022961025e3660046115f7565b610563565b61022f6102713660046115f7565b6001600160a01b03166000908152600b602052604090205490565b61022961065a565b6102296102a23660046115bb565b61074c565b6101fe6102b536600461155c565b61076c565b61022f6102c83660046115f7565b610777565b6008546101fe906001600160a01b031681565b6102296107bf565b600c546101c19060ff1681565b6101de61089f565b61022961030b36600461155c565b6108ae565b61022961031e366004611620565b61097d565b6103366103313660046115f7565b610988565b6040516101cd9190611657565b61022961035136600461169b565b6109f4565b610229610364366004611744565b610a72565b6101de61037736600461155c565b610a8a565b61022f61038a3660046117c0565b610b9b565b6101c161039d366004611822565b610cdd565b61022f600a5481565b6009546101fe906001600160a01b031681565b61022f6103cc3660046115f7565b600b6020526000908152604090205481565b60006001600160e01b03198216632483248360e11b1480610403575061040382610d0b565b92915050565b60606000805461041890611855565b80601f016020809104026020016040519081016040528092919081815260200182805461044490611855565b80156104915780601f1061046657610100808354040283529160200191610491565b820191906000526020600020905b81548152906001019060200180831161047457829003601f168201915b5050505050905090565b60006104a682610d5b565b506000828152600460205260409020546001600160a01b0316610403565b6104cf828233610d94565b5050565b6001600160a01b03821661050257604051633250574960e11b8152600060048201526024015b60405180910390fd5b600061050f838333610da1565b9050836001600160a01b0316816001600160a01b03161461055d576040516364283d7b60e01b81526001600160a01b03808616600483015260248201849052821660448201526064016104f9565b50505050565b6008546001600160a01b031633146105d15760405162461bcd60e51b815260206004820152602b60248201527f4f6e6c7920746865206f776e65722063616e206368616e67652074686520746f60448201526a6b656e206164647265737360a81b60648201526084016104f9565b6001600160a01b0381166106385760405162461bcd60e51b815260206004820152602860248201527f546f6b656e20616464726573732063616e6e6f7420626520746865207a65726f604482015267206164647265737360c01b60648201526084016104f9565b600980546001600160a01b0319166001600160a01b0392909216919091179055565b6008546001600160a01b031633146106b45760405162461bcd60e51b815260206004820152601760248201527f4f6e6c79206f776e65722063616e20776974686472617700000000000000000060448201526064016104f9565b6008546040516000916001600160a01b03169047908381818185875af1925050503d8060008114610701576040519150601f19603f3d011682016040523d82523d6000602084013e610706565b606091505b50509050806107495760405162461bcd60e51b815260206004820152600f60248201526e15da5d1a191c985dc819985a5b1959608a1b60448201526064016104f9565b50565b61076783838360405180602001604052806000815250610a72565b505050565b600061040382610d5b565b60006001600160a01b0382166107a3576040516322718ad960e21b8152600060048201526024016104f9565b506001600160a01b031660009081526003602052604090205490565b600954600a5460405163079cc67960e41b815233600482015260248101919091526001600160a01b03909116906379cc6790906044016020604051808303816000875af1158015610814573d6000803e3d6000fd5b505050506040513d601f19601f82011682018060405250810190610838919061188f565b6108785760405162461bcd60e51b8152602060048201526011602482015270151bdad95b88189d5c9b8819985a5b1959607a1b60448201526064016104f9565b336000908152600b602052604081208054600192906108989084906118c2565b9091555050565b60606001805461041890611855565b6008546001600160a01b0316331461091a5760405162461bcd60e51b815260206004820152602960248201527f4f6e6c7920746865206f776e65722063616e206368616e67652074686520637260448201526819591a5d0818dbdcdd60ba1b60648201526084016104f9565b600081116109785760405162461bcd60e51b815260206004820152602560248201527f43726564697420636f7374206d7573742062652067726561746572207468616e604482015264207a65726f60d81b60648201526084016104f9565b600a55565b6104cf338383610e9a565b6001600160a01b0381166000908152600d60209081526040918290208054835181840281018401909452808452606093928301828280156109e857602002820191906000526020600020905b8154815260200190600101908083116109d4575b50505050509050919050565b6008546001600160a01b03163314610a5f5760405162461bcd60e51b815260206004820152602860248201527f4f6e6c7920746865206f776e65722063616e206368616e6765206d696e74696e604482015267672073746174757360c01b60648201526084016104f9565b600c805460ff1916911515919091179055565b610a7d8484846104d3565b61055d3385858585610f39565b6060610a9582610d5b565b5060008281526006602052604081208054610aaf90611855565b80601f0160208091040260200160405190810160405280929190818152602001828054610adb90611855565b8015610b285780601f10610afd57610100808354040283529160200191610b28565b820191906000526020600020905b815481529060010190602001808311610b0b57829003601f168201915b505050505090506000610b4660408051602081019091526000815290565b90508051600003610b58575092915050565b815115610b8a578082604051602001610b729291906118d5565b60405160208183030381529060405292505050919050565b610b9384611064565b949350505050565b600c5460009060ff16610bf05760405162461bcd60e51b815260206004820152601d60248201527f4d696e74696e672069732063757272656e746c792064697361626c656400000060448201526064016104f9565b6001600160a01b0383166000908152600b6020526040902054610c4b5760405162461bcd60e51b8152602060048201526013602482015272125b9cdd59999a58da595b9d0818dc99591a5d606a1b60448201526064016104f9565b6001600160a01b0383166000908152600b60205260408120805460019290610c74908490611904565b92505081905550600160076000828254610c8e91906118c2565b9091555050600754610ca084826110d9565b610caa818461113e565b6001600160a01b0384166000908152600d6020908152604082208054600181018255908352912001819055905092915050565b6001600160a01b03918216600090815260056020908152604080832093909416825291909152205460ff1690565b60006001600160e01b031982166380ac58cd60e01b1480610d3c57506001600160e01b03198216635b5e139f60e01b145b8061040357506301ffc9a760e01b6001600160e01b0319831614610403565b6000818152600260205260408120546001600160a01b03168061040357604051637e27328960e01b8152600481018490526024016104f9565b610767838383600161118e565b6000828152600260205260408120546001600160a01b0390811690831615610dce57610dce818486611294565b6001600160a01b03811615610e0c57610deb60008560008061118e565b6001600160a01b038116600090815260036020526040902080546000190190555b6001600160a01b03851615610e3b576001600160a01b0385166000908152600360205260409020805460010190555b60008481526002602052604080822080546001600160a01b0319166001600160a01b0389811691821790925591518793918516917fddf252ad1be2c89b69c2b068fc378daa952ba7f163c4a11628f55a4df523b3ef91a4949350505050565b6001600160a01b038216610ecc57604051630b61174360e31b81526001600160a01b03831660048201526024016104f9565b6001600160a01b03838116600081815260056020908152604080832094871680845294825291829020805460ff191686151590811790915591519182527f17307eab39ab6107e8899845ad3d59bd9653f200f220920489ca2b5937696c31910160405180910390a3505050565b6001600160a01b0383163b1561105d57604051630a85bd0160e11b81526001600160a01b0384169063150b7a0290610f7b908890889087908790600401611917565b6020604051808303816000875af1925050508015610fb6575060408051601f3d908101601f19168201909252610fb391810190611954565b60015b61101f573d808015610fe4576040519150601f19603f3d011682016040523d82523d6000602084013e610fe9565b606091505b50805160000361101757604051633250574960e11b81526001600160a01b03851660048201526024016104f9565b805181602001fd5b6001600160e01b03198116630a85bd0160e11b1461105b57604051633250574960e11b81526001600160a01b03851660048201526024016104f9565b505b5050505050565b606061106f82610d5b565b50600061108760408051602081019091526000815290565b905060008151116110a757604051806020016040528060008152506110d2565b806110b1846112f8565b6040516020016110c29291906118d5565b6040516020818303038152906040525b9392505050565b6001600160a01b03821661110357604051633250574960e11b8152600060048201526024016104f9565b600061111183836000610da1565b90506001600160a01b03811615610767576040516339e3563760e11b8152600060048201526024016104f9565b600082815260066020526040902061115682826119b7565b506040518281527ff8e1a15aba9398e019f0b49df1a4fde98ee17ae345cb5f6b5e2c27f5033e8ce79060200160405180910390a15050565b80806111a257506001600160a01b03821615155b156112645760006111b284610d5b565b90506001600160a01b038316158015906111de5750826001600160a01b0316816001600160a01b031614155b80156111f157506111ef8184610cdd565b155b1561121a5760405163a9fbf51f60e01b81526001600160a01b03841660048201526024016104f9565b81156112625783856001600160a01b0316826001600160a01b03167f8c5be1e5ebec7d5bd14f71427d1e84f3dd0314c0f7b2291e5b200ac8c7c3b92560405160405180910390a45b505b5050600090815260046020526040902080546001600160a01b0319166001600160a01b0392909216919091179055565b61129f83838361138b565b610767576001600160a01b0383166112cd57604051637e27328960e01b8152600481018290526024016104f9565b60405163177e802f60e01b81526001600160a01b0383166004820152602481018290526044016104f9565b60606000611305836113ee565b600101905060008167ffffffffffffffff811115611325576113256116b8565b6040519080825280601f01601f19166020018201604052801561134f576020820181803683370190505b5090508181016020015b600019016f181899199a1a9b1b9c1cb0b131b232b360811b600a86061a8153600a850494508461135957509392505050565b60006001600160a01b03831615801590610b935750826001600160a01b0316846001600160a01b031614806113c557506113c58484610cdd565b80610b935750506000908152600460205260409020546001600160a01b03908116911614919050565b60008072184f03e93ff9f4daa797ed6e38ed64bf6a1f0160401b831061142d5772184f03e93ff9f4daa797ed6e38ed64bf6a1f0160401b830492506040015b6d04ee2d6d415b85acef81000000008310611459576d04ee2d6d415b85acef8100000000830492506020015b662386f26fc10000831061147757662386f26fc10000830492506010015b6305f5e100831061148f576305f5e100830492506008015b61271083106114a357612710830492506004015b606483106114b5576064830492506002015b600a83106104035760010192915050565b6001600160e01b03198116811461074957600080fd5b6000602082840312156114ee57600080fd5b81356110d2816114c6565b60005b838110156115145781810151838201526020016114fc565b50506000910152565b600081518084526115358160208601602086016114f9565b601f01601f19169290920160200192915050565b6020815260006110d2602083018461151d565b60006020828403121561156e57600080fd5b5035919050565b80356001600160a01b038116811461158c57600080fd5b919050565b600080604083850312156115a457600080fd5b6115ad83611575565b946020939093013593505050565b6000806000606084860312156115d057600080fd5b6115d984611575565b92506115e760208501611575565b9150604084013590509250925092565b60006020828403121561160957600080fd5b6110d282611575565b801515811461074957600080fd5b6000806040838503121561163357600080fd5b61163c83611575565b9150602083013561164c81611612565b809150509250929050565b6020808252825182820181905260009190848201906040850190845b8181101561168f57835183529284019291840191600101611673565b50909695505050505050565b6000602082840312156116ad57600080fd5b81356110d281611612565b634e487b7160e01b600052604160045260246000fd5b600067ffffffffffffffff808411156116e9576116e96116b8565b604051601f8501601f19908116603f01168101908282118183101715611711576117116116b8565b8160405280935085815286868601111561172a57600080fd5b858560208301376000602087830101525050509392505050565b6000806000806080858703121561175a57600080fd5b61176385611575565b935061177160208601611575565b925060408501359150606085013567ffffffffffffffff81111561179457600080fd5b8501601f810187136117a557600080fd5b6117b4878235602084016116ce565b91505092959194509250565b600080604083850312156117d357600080fd5b6117dc83611575565b9150602083013567ffffffffffffffff8111156117f857600080fd5b8301601f8101851361180957600080fd5b611818858235602084016116ce565b9150509250929050565b6000806040838503121561183557600080fd5b61183e83611575565b915061184c60208401611575565b90509250929050565b600181811c9082168061186957607f821691505b60208210810361188957634e487b7160e01b600052602260045260246000fd5b50919050565b6000602082840312156118a157600080fd5b81516110d281611612565b634e487b7160e01b600052601160045260246000fd5b80820180821115610403576104036118ac565b600083516118e78184602088016114f9565b8351908301906118fb8183602088016114f9565b01949350505050565b81810381811115610403576104036118ac565b6001600160a01b038581168252841660208201526040810183905260806060820181905260009061194a9083018461151d565b9695505050505050565b60006020828403121561196657600080fd5b81516110d2816114c6565b601f82111561076757600081815260208120601f850160051c810160208610156119985750805b601f850160051c820191505b8181101561105b578281556001016119a4565b815167ffffffffffffffff8111156119d1576119d16116b8565b6119e5816119df8454611855565b84611971565b602080601f831160018114611a1a5760008415611a025750858301515b600019600386901b1c1916600185901b17855561105b565b600085815260208120601f198616915b82811015611a4957888601518255948401946001909101908401611a2a565b5085821015611a675787850151600019600388901b60f8161c191681555b5050505050600190811b0190555056fea2646970667358221220d3e7995d94df051031789a9321212e3d584d571b0665bc3ec108a4b99bd9aad764736f6c63430008140033",
  "linkReferences": {},
  "deployedLinkReferences": {}
}