{
  "_format": "hh-sol-artifact-1",
  "contractName": "GuiziaNFT",
  "sourceName": "contracts/GuiziaNFT.sol",
  "abi": [
    {
      "inputs": [
        {
          "internalType": "address",
          "name": "_tokenAddress",
          "type": "address"
        }
      ],
      "stateMutability": "nonpayable",
      "type": "constructor"
    },
    {
      "inputs": [
        {
          "internalType": "address",
          "name": "sender",
          "type": "address"
        },
        {
          "internalType": "uint256",
          "name": "tokenId",
          "type": "uint256"
        },
        {
          "internalType": "address",
          "name": "owner",
          "type": "address"
        }
      ],
      "name": "ERC721IncorrectOwner",
      "type": "error"
    },
    {
      "inputs": [
        {
          "internalType": "address",
          "name": "operator",
          "type": "address"
        },
        {
          "internalType": "uint256",
          "name": "tokenId",
          "type": "uint256"
        }
      ],
      "name": "ERC721InsufficientApproval",
      "type": "error"
    },
    {
      "inputs": [
        {
          "internalType": "address",
          "name": "approver",
          "type": "address"
        }
      ],
      "name": "ERC721InvalidApprover",
      "type": "error"
    },
    {
      "inputs": [
        {
          "internalType": "address",
          "name": "operator",
          "type": "address"
        }
      ],
      "name": "ERC721InvalidOperator",
      "type": "error"
    },
    {
      "inputs": [
        {
          "internalType": "address",
          "name": "owner",
          "type": "address"
        }
      ],
      "name": "ERC721InvalidOwner",
      "type": "error"
    },
    {
      "inputs": [
        {
          "internalType": "address",
          "name": "receiver",
          "type": "address"
        }
      ],
      "name": "ERC721InvalidReceiver",
      "type": "error"
    },
    {
      "inputs": [
        {
          "internalType": "address",
          "name": "sender",
          "type": "address"
        }
      ],
      "name": "ERC721InvalidSender",
      "type": "error"
    },
    {
      "inputs": [
        {
          "internalType": "uint256",
          "name": "tokenId",
          "type": "uint256"
        }
      ],
      "name": "ERC721NonexistentToken",
      "type": "error"
    },
    {
      "anonymous": false,
      "inputs": [
        {
          "indexed": true,
          "internalType": "address",
          "name": "owner",
          "type": "address"
        },
        {
          "indexed": true,
          "internalType": "address",
          "name": "approved",
          "type": "address"
        },
        {
          "indexed": true,
          "internalType": "uint256",
          "name": "tokenId",
          "type": "uint256"
        }
      ],
      "name": "Approval",
      "type": "event"
    },
    {
      "anonymous": false,
      "inputs": [
        {
          "indexed": true,
          "internalType": "address",
          "name": "owner",
          "type": "address"
        },
        {
          "indexed": true,
          "internalType": "address",
          "name": "operator",
          "type": "address"
        },
        {
          "indexed": false,
          "internalType": "bool",
          "name": "approved",
          "type": "bool"
        }
      ],
      "name": "ApprovalForAll",
      "type": "event"
    },
    {
      "anonymous": false,
      "inputs": [
        {
          "indexed": false,
          "internalType": "uint256",
          "name": "_fromTokenId",
          "type": "uint256"
        },
        {
          "indexed": false,
          "internalType": "uint256",
          "name": "_toTokenId",
          "type": "uint256"
        }
      ],
      "name": "BatchMetadataUpdate",
      "type": "event"
    },
    {
      "anonymous": false,
      "inputs": [
        {
          "indexed": false,
          "internalType": "uint256",
          "name": "_tokenId",
          "type": "uint256"
        }
      ],
      "name": "MetadataUpdate",
      "type": "event"
    },
    {
      "anonymous": false,
      "inputs": [
        {
          "indexed": true,
          "internalType": "address",
          "name": "from",
          "type": "address"
        },
        {
          "indexed": true,
          "internalType": "address",
          "name": "to",
          "type": "address"
        },
        {
          "indexed": true,
          "internalType": "uint256",
          "name": "tokenId",
          "type": "uint256"
        }
      ],
      "name": "Transfer",
      "type": "event"
    },
    {
      "inputs": [
        {
          "internalType": "address",
          "name": "to",
          "type": "address"
        },
        {
          "internalType": "uint256",
          "name": "tokenId",
          "type": "uint256"
        }
      ],
      "name": "approve",
      "outputs": [],
      "stateMutability": "nonpayable",
      "type": "function"
    },
    {
      "inputs": [
        {
          "internalType": "address",
          "name": "owner",
          "type": "address"
        }
      ],
      "name": "balanceOf",
      "outputs": [
        {
          "internalType": "uint256",
          "name": "",
          "type": "uint256"
        }
      ],
      "stateMutability": "view",
      "type": "function"
    },
    {
      "inputs": [
        {
          "internalType": "uint256",
          "name": "amount",
          "type": "uint256"
        }
      ],
      "name": "buyCredit",
      "outputs": [],
      "stateMutability": "nonpayable",
      "type": "function"
    },
    {
      "inputs": [],
      "name": "creditCost",
      "outputs": [
        {
          "internalType": "uint256",
          "name": "",
          "type": "uint256"
        }
      ],
      "stateMutability": "view",
      "type": "function"
    },
    {
      "inputs": [
        {
          "internalType": "address",
          "name": "",
          "type": "address"
        }
      ],
      "name": "credits",
      "outputs": [
        {
          "internalType": "uint256",
          "name": "",
          "type": "uint256"
        }
      ],
      "stateMutability": "view",
      "type": "function"
    },
    {
      "inputs": [
        {
          "internalType": "uint256",
          "name": "tokenId",
          "type": "uint256"
        }
      ],
      "name": "getApproved",
      "outputs": [
        {
          "internalType": "address",
          "name": "",
          "type": "address"
        }
      ],
      "stateMutability": "view",
      "type": "function"
    },
    {
      "inputs": [
        {
          "internalType": "address",
          "name": "userAddress",
          "type": "address"
        }
      ],
      "name": "getCredits",
      "outputs": [
        {
          "internalType": "uint256",
          "name": "",
          "type": "uint256"
        }
      ],
      "stateMutability": "view",
      "type": "function"
    },
    {
      "inputs": [
        {
          "internalType": "address",
          "name": "owner",
          "type": "address"
        },
        {
          "internalType": "address",
          "name": "operator",
          "type": "address"
        }
      ],
      "name": "isApprovedForAll",
      "outputs": [
        {
          "internalType": "bool",
          "name": "",
          "type": "bool"
        }
      ],
      "stateMutability": "view",
      "type": "function"
    },
    {
      "inputs": [
        {
          "internalType": "address",
          "name": "userAddress",
          "type": "address"
        },
        {
          "internalType": "string",
          "name": "tokenURI",
          "type": "string"
        }
      ],
      "name": "mint",
      "outputs": [
        {
          "internalType": "uint256",
          "name": "",
          "type": "uint256"
        }
      ],
      "stateMutability": "nonpayable",
      "type": "function"
    },
    {
      "inputs": [],
      "name": "mintingOpen",
      "outputs": [
        {
          "internalType": "bool",
          "name": "",
          "type": "bool"
        }
      ],
      "stateMutability": "view",
      "type": "function"
    },
    {
      "inputs": [],
      "name": "name",
      "outputs": [
        {
          "internalType": "string",
          "name": "",
          "type": "string"
        }
      ],
      "stateMutability": "view",
      "type": "function"
    },
    {
      "inputs": [],
      "name": "owner",
      "outputs": [
        {
          "internalType": "address",
          "name": "",
          "type": "address"
        }
      ],
      "stateMutability": "view",
      "type": "function"
    },
    {
      "inputs": [
        {
          "internalType": "uint256",
          "name": "tokenId",
          "type": "uint256"
        }
      ],
      "name": "ownerOf",
      "outputs": [
        {
          "internalType": "address",
          "name": "",
          "type": "address"
        }
      ],
      "stateMutability": "view",
      "type": "function"
    },
    {
      "inputs": [
        {
          "internalType": "address",
          "name": "from",
          "type": "address"
        },
        {
          "internalType": "address",
          "name": "to",
          "type": "address"
        },
        {
          "internalType": "uint256",
          "name": "tokenId",
          "type": "uint256"
        }
      ],
      "name": "safeTransferFrom",
      "outputs": [],
      "stateMutability": "nonpayable",
      "type": "function"
    },
    {
      "inputs": [
        {
          "internalType": "address",
          "name": "from",
          "type": "address"
        },
        {
          "internalType": "address",
          "name": "to",
          "type": "address"
        },
        {
          "internalType": "uint256",
          "name": "tokenId",
          "type": "uint256"
        },
        {
          "internalType": "bytes",
          "name": "data",
          "type": "bytes"
        }
      ],
      "name": "safeTransferFrom",
      "outputs": [],
      "stateMutability": "nonpayable",
      "type": "function"
    },
    {
      "inputs": [
        {
          "internalType": "address",
          "name": "operator",
          "type": "address"
        },
        {
          "internalType": "bool",
          "name": "approved",
          "type": "bool"
        }
      ],
      "name": "setApprovalForAll",
      "outputs": [],
      "stateMutability": "nonpayable",
      "type": "function"
    },
    {
      "inputs": [
        {
          "internalType": "uint256",
          "name": "_newCost",
          "type": "uint256"
        }
      ],
      "name": "setCreditCost",
      "outputs": [],
      "stateMutability": "nonpayable",
      "type": "function"
    },
    {
      "inputs": [
        {
          "internalType": "bool",
          "name": "_mintingOpen",
          "type": "bool"
        }
      ],
      "name": "setMintingOpen",
      "outputs": [],
      "stateMutability": "nonpayable",
      "type": "function"
    },
    {
      "inputs": [
        {
          "internalType": "address",
          "name": "_newTokenAddress",
          "type": "address"
        }
      ],
      "name": "setTokenAddress",
      "outputs": [],
      "stateMutability": "nonpayable",
      "type": "function"
    },
    {
      "inputs": [
        {
          "internalType": "bytes4",
          "name": "interfaceId",
          "type": "bytes4"
        }
      ],
      "name": "supportsInterface",
      "outputs": [
        {
          "internalType": "bool",
          "name": "",
          "type": "bool"
        }
      ],
      "stateMutability": "view",
      "type": "function"
    },
    {
      "inputs": [],
      "name": "symbol",
      "outputs": [
        {
          "internalType": "string",
          "name": "",
          "type": "string"
        }
      ],
      "stateMutability": "view",
      "type": "function"
    },
    {
      "inputs": [],
      "name": "token",
      "outputs": [
        {
          "internalType": "contract IERC20Burnable",
          "name": "",
          "type": "address"
        }
      ],
      "stateMutability": "view",
      "type": "function"
    },
    {
      "inputs": [
        {
          "internalType": "address",
          "name": "ownerAddress",
          "type": "address"
        }
      ],
      "name": "tokenIdsOf",
      "outputs": [
        {
          "internalType": "uint256[]",
          "name": "",
          "type": "uint256[]"
        }
      ],
      "stateMutability": "view",
      "type": "function"
    },
    {
      "inputs": [
        {
          "internalType": "uint256",
          "name": "tokenId",
          "type": "uint256"
        }
      ],
      "name": "tokenURI",
      "outputs": [
        {
          "internalType": "string",
          "name": "",
          "type": "string"
        }
      ],
      "stateMutability": "view",
      "type": "function"
    },
    {
      "inputs": [],
      "name": "totalSupply",
      "outputs": [
        {
          "internalType": "uint256",
          "name": "",
          "type": "uint256"
        }
      ],
      "stateMutability": "view",
      "type": "function"
    },
    {
      "inputs": [
        {
          "internalType": "address",
          "name": "from",
          "type": "address"
        },
        {
          "internalType": "address",
          "name": "to",
          "type": "address"
        },
        {
          "internalType": "uint256",
          "name": "tokenId",
          "type": "uint256"
        }
      ],
      "name": "transferFrom",
      "outputs": [],
      "stateMutability": "nonpayable",
      "type": "function"
    },
    {
      "inputs": [],
      "name": "withdraw",
      "outputs": [],
      "stateMutability": "nonpayable",
      "type": "function"
    }
  ],
  "bytecode": "0x608060405261d903600a55600c805460ff191660011790553480156200002457600080fd5b5060405162001f0f38038062001f0f8339810160408190526200004791620000dd565b604051806040016040528060068152602001654775697a696160d01b815250604051806040016040528060068152602001654755495a494160d01b8152508160009081620000969190620001b4565b506001620000a58282620001b4565b505060088054336001600160a01b031991821617909155600980549091166001600160a01b0393909316929092179091555062000280565b600060208284031215620000f057600080fd5b81516001600160a01b03811681146200010857600080fd5b9392505050565b634e487b7160e01b600052604160045260246000fd5b600181811c908216806200013a57607f821691505b6020821081036200015b57634e487b7160e01b600052602260045260246000fd5b50919050565b601f821115620001af57600081815260208120601f850160051c810160208610156200018a5750805b601f850160051c820191505b81811015620001ab5782815560010162000196565b5050505b505050565b81516001600160401b03811115620001d057620001d06200010f565b620001e881620001e1845462000125565b8462000161565b602080601f831160018114620002205760008415620002075750858301515b600019600386901b1c1916600185901b178555620001ab565b600085815260208120601f198616915b82811015620002515788860151825594840194600190910190840162000230565b5085821015620002705787850151600019600388901b60f8161c191681555b5050505050600190811b01905550565b611c7f80620002906000396000f3fe608060405234801561001057600080fd5b50600436106101a95760003560e01c80638da5cb5b116100f9578063b88d4fde11610097578063e985e9c511610071578063e985e9c51461039a578063ee4dba90146103ad578063fc0c546a146103b6578063fe5ff468146103c957600080fd5b8063b88d4fde14610361578063c87b56dd14610374578063d0def5211461038757600080fd5b80639ce147d0116100d35780639ce147d014610308578063a22cb4651461031b578063a3b261f21461032e578063b033caf11461034e57600080fd5b80638da5cb5b146102e05780638f4bb497146102f357806395d89b411461030057600080fd5b806326a4e8d21161016657806342842e0e1161014057806342842e0e146102945780636352211e146102a757806370a08231146102ba5780637211dde4146102cd57600080fd5b806326a4e8d2146102505780633b66e9f6146102635780633ccfd60b1461028c57600080fd5b806301ffc9a7146101ae57806306fdde03146101d6578063081812fc146101eb578063095ea7b31461021657806318160ddd1461022b57806323b872dd1461023d575b600080fd5b6101c16101bc3660046116a8565b6103e9565b60405190151581526020015b60405180910390f35b6101de610414565b6040516101cd9190611715565b6101fe6101f9366004611728565b6104a6565b6040516001600160a01b0390911681526020016101cd565b61022961022436600461175d565b6104cf565b005b6007545b6040519081526020016101cd565b61022961024b366004611787565b6104de565b61022961025e3660046117c3565b61056e565b61022f6102713660046117c3565b6001600160a01b03166000908152600b602052604090205490565b610229610665565b6102296102a2366004611787565b610757565b6101fe6102b5366004611728565b610777565b61022f6102c83660046117c3565b610782565b6102296102db366004611728565b6107ca565b6008546101fe906001600160a01b031681565b600c546101c19060ff1681565b6101de610a6b565b610229610316366004611728565b610a7a565b6102296103293660046117ee565b610b49565b61034161033c3660046117c3565b610b54565b6040516101cd9190611821565b61022961035c366004611865565b610bc0565b61022961036f36600461190c565b610c3e565b6101de610382366004611728565b610c56565b61022f610395366004611988565b610d67565b6101c16103a83660046119ea565b610ea9565b61022f600a5481565b6009546101fe906001600160a01b031681565b61022f6103d73660046117c3565b600b6020526000908152604090205481565b60006001600160e01b03198216632483248360e11b148061040e575061040e82610ed7565b92915050565b60606000805461042390611a14565b80601f016020809104026020016040519081016040528092919081815260200182805461044f90611a14565b801561049c5780601f106104715761010080835404028352916020019161049c565b820191906000526020600020905b81548152906001019060200180831161047f57829003601f168201915b5050505050905090565b60006104b182610f27565b506000828152600460205260409020546001600160a01b031661040e565b6104da828233610f60565b5050565b6001600160a01b03821661050d57604051633250574960e11b8152600060048201526024015b60405180910390fd5b600061051a838333610f6d565b9050836001600160a01b0316816001600160a01b031614610568576040516364283d7b60e01b81526001600160a01b0380861660048301526024820184905282166044820152606401610504565b50505050565b6008546001600160a01b031633146105dc5760405162461bcd60e51b815260206004820152602b60248201527f4f6e6c7920746865206f776e65722063616e206368616e67652074686520746f60448201526a6b656e206164647265737360a81b6064820152608401610504565b6001600160a01b0381166106435760405162461bcd60e51b815260206004820152602860248201527f546f6b656e20616464726573732063616e6e6f7420626520746865207a65726f604482015267206164647265737360c01b6064820152608401610504565b600980546001600160a01b0319166001600160a01b0392909216919091179055565b6008546001600160a01b031633146106bf5760405162461bcd60e51b815260206004820152601760248201527f4f6e6c79206f776e65722063616e2077697468647261770000000000000000006044820152606401610504565b6008546040516000916001600160a01b03169047908381818185875af1925050503d806000811461070c576040519150601f19603f3d011682016040523d82523d6000602084013e610711565b606091505b50509050806107545760405162461bcd60e51b815260206004820152600f60248201526e15da5d1a191c985dc819985a5b1959608a1b6044820152606401610504565b50565b61077283838360405180602001604052806000815250610c3e565b505050565b600061040e82610f27565b60006001600160a01b0382166107ae576040516322718ad960e21b815260006004820152602401610504565b506001600160a01b031660009081526003602052604090205490565b6000811161082a5760405162461bcd60e51b815260206004820152602760248201527f43726564697420616d6f756e74206d7573742062652067726561746572207468604482015266616e207a65726f60c81b6064820152608401610504565b80600a546108389190611a64565b6009546040516370a0823160e01b81523360048201526001600160a01b03909116906370a0823190602401602060405180830381865afa158015610880573d6000803e3d6000fd5b505050506040513d601f19601f820116820180604052508101906108a49190611a7b565b10156108f25760405162461bcd60e51b815260206004820152601a60248201527f496e73756666696369656e7420746f6b656e2062616c616e63650000000000006044820152606401610504565b80600a546109009190611a64565b600954604051636eb1769f60e11b81523360048201523060248201526001600160a01b039091169063dd62ed3e90604401602060405180830381865afa15801561094e573d6000803e3d6000fd5b505050506040513d601f19601f820116820180604052508101906109729190611a7b565b10156109c05760405162461bcd60e51b815260206004820152601c60248201527f496e73756666696369656e7420746f6b656e20616c6c6f77616e6365000000006044820152606401610504565b600954600a546001600160a01b03909116906379cc67909033906109e5908590611a64565b6040516001600160e01b031960e085901b1681526001600160a01b0390921660048301526024820152604401600060405180830381600087803b158015610a2b57600080fd5b505af1158015610a3f573d6000803e3d6000fd5b5050336000908152600b602052604081208054859450909250610a63908490611a94565b909155505050565b60606001805461042390611a14565b6008546001600160a01b03163314610ae65760405162461bcd60e51b815260206004820152602960248201527f4f6e6c7920746865206f776e65722063616e206368616e67652074686520637260448201526819591a5d0818dbdcdd60ba1b6064820152608401610504565b60008111610b445760405162461bcd60e51b815260206004820152602560248201527f43726564697420636f7374206d7573742062652067726561746572207468616e604482015264207a65726f60d81b6064820152608401610504565b600a55565b6104da338383611066565b6001600160a01b0381166000908152600d6020908152604091829020805483518184028101840190945280845260609392830182828015610bb457602002820191906000526020600020905b815481526020019060010190808311610ba0575b50505050509050919050565b6008546001600160a01b03163314610c2b5760405162461bcd60e51b815260206004820152602860248201527f4f6e6c7920746865206f776e65722063616e206368616e6765206d696e74696e604482015267672073746174757360c01b6064820152608401610504565b600c805460ff1916911515919091179055565b610c498484846104de565b6105683385858585611105565b6060610c6182610f27565b5060008281526006602052604081208054610c7b90611a14565b80601f0160208091040260200160405190810160405280929190818152602001828054610ca790611a14565b8015610cf45780601f10610cc957610100808354040283529160200191610cf4565b820191906000526020600020905b815481529060010190602001808311610cd757829003601f168201915b505050505090506000610d1260408051602081019091526000815290565b90508051600003610d24575092915050565b815115610d56578082604051602001610d3e929190611aa7565b60405160208183030381529060405292505050919050565b610d5f84611230565b949350505050565b600c5460009060ff16610dbc5760405162461bcd60e51b815260206004820152601d60248201527f4d696e74696e672069732063757272656e746c792064697361626c65640000006044820152606401610504565b6001600160a01b0383166000908152600b6020526040902054610e175760405162461bcd60e51b8152602060048201526013602482015272125b9cdd59999a58da595b9d0818dc99591a5d606a1b6044820152606401610504565b6001600160a01b0383166000908152600b60205260408120805460019290610e40908490611ad6565b92505081905550600160076000828254610e5a9190611a94565b9091555050600754610e6c84826112a5565b610e76818461130a565b6001600160a01b0384166000908152600d6020908152604082208054600181018255908352912001819055905092915050565b6001600160a01b03918216600090815260056020908152604080832093909416825291909152205460ff1690565b60006001600160e01b031982166380ac58cd60e01b1480610f0857506001600160e01b03198216635b5e139f60e01b145b8061040e57506301ffc9a760e01b6001600160e01b031983161461040e565b6000818152600260205260408120546001600160a01b03168061040e57604051637e27328960e01b815260048101849052602401610504565b610772838383600161135a565b6000828152600260205260408120546001600160a01b0390811690831615610f9a57610f9a818486611460565b6001600160a01b03811615610fd857610fb760008560008061135a565b6001600160a01b038116600090815260036020526040902080546000190190555b6001600160a01b03851615611007576001600160a01b0385166000908152600360205260409020805460010190555b60008481526002602052604080822080546001600160a01b0319166001600160a01b0389811691821790925591518793918516917fddf252ad1be2c89b69c2b068fc378daa952ba7f163c4a11628f55a4df523b3ef91a4949350505050565b6001600160a01b03821661109857604051630b61174360e31b81526001600160a01b0383166004820152602401610504565b6001600160a01b03838116600081815260056020908152604080832094871680845294825291829020805460ff191686151590811790915591519182527f17307eab39ab6107e8899845ad3d59bd9653f200f220920489ca2b5937696c31910160405180910390a3505050565b6001600160a01b0383163b1561122957604051630a85bd0160e11b81526001600160a01b0384169063150b7a0290611147908890889087908790600401611ae9565b6020604051808303816000875af1925050508015611182575060408051601f3d908101601f1916820190925261117f91810190611b26565b60015b6111eb573d8080156111b0576040519150601f19603f3d011682016040523d82523d6000602084013e6111b5565b606091505b5080516000036111e357604051633250574960e11b81526001600160a01b0385166004820152602401610504565b805181602001fd5b6001600160e01b03198116630a85bd0160e11b1461122757604051633250574960e11b81526001600160a01b0385166004820152602401610504565b505b5050505050565b606061123b82610f27565b50600061125360408051602081019091526000815290565b90506000815111611273576040518060200160405280600081525061129e565b8061127d846114c4565b60405160200161128e929190611aa7565b6040516020818303038152906040525b9392505050565b6001600160a01b0382166112cf57604051633250574960e11b815260006004820152602401610504565b60006112dd83836000610f6d565b90506001600160a01b03811615610772576040516339e3563760e11b815260006004820152602401610504565b60008281526006602052604090206113228282611b89565b506040518281527ff8e1a15aba9398e019f0b49df1a4fde98ee17ae345cb5f6b5e2c27f5033e8ce79060200160405180910390a15050565b808061136e57506001600160a01b03821615155b1561143057600061137e84610f27565b90506001600160a01b038316158015906113aa5750826001600160a01b0316816001600160a01b031614155b80156113bd57506113bb8184610ea9565b155b156113e65760405163a9fbf51f60e01b81526001600160a01b0384166004820152602401610504565b811561142e5783856001600160a01b0316826001600160a01b03167f8c5be1e5ebec7d5bd14f71427d1e84f3dd0314c0f7b2291e5b200ac8c7c3b92560405160405180910390a45b505b5050600090815260046020526040902080546001600160a01b0319166001600160a01b0392909216919091179055565b61146b838383611557565b610772576001600160a01b03831661149957604051637e27328960e01b815260048101829052602401610504565b60405163177e802f60e01b81526001600160a01b038316600482015260248101829052604401610504565b606060006114d1836115ba565b600101905060008167ffffffffffffffff8111156114f1576114f1611880565b6040519080825280601f01601f19166020018201604052801561151b576020820181803683370190505b5090508181016020015b600019016f181899199a1a9b1b9c1cb0b131b232b360811b600a86061a8153600a850494508461152557509392505050565b60006001600160a01b03831615801590610d5f5750826001600160a01b0316846001600160a01b0316148061159157506115918484610ea9565b80610d5f5750506000908152600460205260409020546001600160a01b03908116911614919050565b60008072184f03e93ff9f4daa797ed6e38ed64bf6a1f0160401b83106115f95772184f03e93ff9f4daa797ed6e38ed64bf6a1f0160401b830492506040015b6d04ee2d6d415b85acef81000000008310611625576d04ee2d6d415b85acef8100000000830492506020015b662386f26fc10000831061164357662386f26fc10000830492506010015b6305f5e100831061165b576305f5e100830492506008015b612710831061166f57612710830492506004015b60648310611681576064830492506002015b600a831061040e5760010192915050565b6001600160e01b03198116811461075457600080fd5b6000602082840312156116ba57600080fd5b813561129e81611692565b60005b838110156116e05781810151838201526020016116c8565b50506000910152565b600081518084526117018160208601602086016116c5565b601f01601f19169290920160200192915050565b60208152600061129e60208301846116e9565b60006020828403121561173a57600080fd5b5035919050565b80356001600160a01b038116811461175857600080fd5b919050565b6000806040838503121561177057600080fd5b61177983611741565b946020939093013593505050565b60008060006060848603121561179c57600080fd5b6117a584611741565b92506117b360208501611741565b9150604084013590509250925092565b6000602082840312156117d557600080fd5b61129e82611741565b8035801515811461175857600080fd5b6000806040838503121561180157600080fd5b61180a83611741565b9150611818602084016117de565b90509250929050565b6020808252825182820181905260009190848201906040850190845b818110156118595783518352928401929184019160010161183d565b50909695505050505050565b60006020828403121561187757600080fd5b61129e826117de565b634e487b7160e01b600052604160045260246000fd5b600067ffffffffffffffff808411156118b1576118b1611880565b604051601f8501601f19908116603f011681019082821181831017156118d9576118d9611880565b816040528093508581528686860111156118f257600080fd5b858560208301376000602087830101525050509392505050565b6000806000806080858703121561192257600080fd5b61192b85611741565b935061193960208601611741565b925060408501359150606085013567ffffffffffffffff81111561195c57600080fd5b8501601f8101871361196d57600080fd5b61197c87823560208401611896565b91505092959194509250565b6000806040838503121561199b57600080fd5b6119a483611741565b9150602083013567ffffffffffffffff8111156119c057600080fd5b8301601f810185136119d157600080fd5b6119e085823560208401611896565b9150509250929050565b600080604083850312156119fd57600080fd5b611a0683611741565b915061181860208401611741565b600181811c90821680611a2857607f821691505b602082108103611a4857634e487b7160e01b600052602260045260246000fd5b50919050565b634e487b7160e01b600052601160045260246000fd5b808202811582820484141761040e5761040e611a4e565b600060208284031215611a8d57600080fd5b5051919050565b8082018082111561040e5761040e611a4e565b60008351611ab98184602088016116c5565b835190830190611acd8183602088016116c5565b01949350505050565b8181038181111561040e5761040e611a4e565b6001600160a01b0385811682528416602082015260408101839052608060608201819052600090611b1c908301846116e9565b9695505050505050565b600060208284031215611b3857600080fd5b815161129e81611692565b601f82111561077257600081815260208120601f850160051c81016020861015611b6a5750805b601f850160051c820191505b8181101561122757828155600101611b76565b815167ffffffffffffffff811115611ba357611ba3611880565b611bb781611bb18454611a14565b84611b43565b602080601f831160018114611bec5760008415611bd45750858301515b600019600386901b1c1916600185901b178555611227565b600085815260208120601f198616915b82811015611c1b57888601518255948401946001909101908401611bfc565b5085821015611c395787850151600019600388901b60f8161c191681555b5050505050600190811b0190555056fea26469706673582212207e3b5d09572fe6844a4df7bd9204515fbc43d7560e86fd4374d756ac0f68a69264736f6c63430008140033",
  "linkReferences": {},
  "deployedLinkReferences": {}
}